:020000040800F2
:1000000000000320DD0300082D0400082D04000873
:100010002D0400082D0400082D0400080000000035
:100020000000000000000000000000002D04000897
:100030002D040008000000002D0400082D04000815
:100040002D0400082D0400082D0400082D040008CC
:100050002D0400082D0400082D0400082D040008BC
:100060002D0400082D0400082D0400082D040008AC
:100070002D0400082D0400082D0400082D0400089C
:100080002D0400082D0400082D0400082D0400088C
:100090002D0400082D0400082D0400082D0400087C
:1000A0002D0400082D0400082D0400082D0400086C
:1000B0002D0400082D0400082D0400082D0400085C
:1000C0002D0400082D0400082D0400082D0400084C
:1000D0002D0400082D0400082D0400082D0400083C
:1000E0002D0400082D0400082D0400082D0400082C
:1000F0002D0400082D0400082D0400082D0400081C
:100100002D0400082D0400082D0400082D0400080B
:100110002D0400082D0400082D0400082D040008FB
:100120002D0400082D0400082D0400082D040008EB
:100130002D0400082D0400082D0400082D040008DB
:100140002D0400082D0400082D0400082D040008CB
:100150002D0400082D0400082D0400082D040008BB
:100160002D0400082D0400082D0400082D040008AB
:100170002D0400082D0400082D04000800000000D4
:100180002D0400082D0400082D0400082D0400088B
:100190002D0400082D0400082D0400082D0400087B
:0C01A0002D0400082D0400082D040008A8
:1001AC0010B5054C237833B9044B13B10448AFF3A5
:1001BC0000800123237010BD1000002000000000FF
:1001CC007804000808B5034B1BB103490348AFF38F
:1001DC00008008BD00000000140000207804000816
:1001EC00034AD2F8883043F47003C2F88830704761
:1001FC0000ED00E082B00190019B5A1E0192002B91
:10020C00FAD102B070470000154B164A9A610329C7
:10021C001BD000228A4220D210B400EB020C124BED
:10022C0083FB0C43A3EBEC7303EB4303ACEB030337
:10023C00DBB20E4C54F82340094B9C610132D2B214
:10024C008A42EAD35DF8044B7047094B1B782BB1FB
:10025C00034B44F281029A6170477047704700BFAC
:10026C000004024000008140565555550000002006
:10027C002E00002038B500F065F800F089F8002554
:10028C002C4628E0264A1378B3FA83F35B091370E3
:10029C00244B1878FFF7B8FF012400E00024224B10
:1002AC001B6913F0400F39D18DB920480178204BD0
:1002BC00A3FB012303F0FE0202EB5303C91A013125
:1002CC00C9B20170174B1878FFF79EFF01254FF448
:1002DC007A70FFF78FFF84F00103164A137085F0D4
:1002EC000103154A1370154BD3F8103813F4005F43
:1002FC00D4D1002CD3D10D4B19780329C2D0094A83
:10030C00137801330E4880FB034000EB4000181AB1
:10031C001070C0B2FFF778FF0124C0E70025D6E7C4
:10032C002E0000202F000020000802400C000020AE
:10033C00ABAAAAAA2D0000202C000020000002402D
:10034C00565555550F4AD2F8303843F00603C2F8CB
:10035C0030380D4BD3F8002442F48042C3F800240B
:10036C00D3F8082442F48042C3F80824D3F81824A4
:10037C0042F40002C3F81824044A136823F04063C3
:10038C001360704700300240000002400008024039
:10039C000E4B1A6842F080521A605A6822F480425E
:1003AC005A609A6842F080529A609A6942F0804290
:1003BC009A611A6842F001021A609A6842F00102CE
:1003CC009A609A6942F480329A6170470004024044
:1003DC00DFF834D00D480E490E4A002302E0D45801
:1003EC00C4500433C4188C42F9D30B4A0B4C002371
:1003FC0001E013600432A242FBD3FFF7F1FE00F0E0
:10040C0011F8FFF737FF70470000032000000020B1
:10041C00100000209804000810000020300000207C
:10042C00FEE7000070B50D4D0D4C641BA4100026AA
:10043C00A64209D10B4D0C4C00F018F8641BA4100B
:10044C000026A64205D170BD55F8043B98470136ED
:10045C00EEE755F8043B98470136F2E790040008A4
:10046C00900400089004000894040008F8B500BF3C
:10047C00F8BC08BC9E467047F8B500BFF8BC08BC79
:04048C009E467047D1
:04049000D10100088E
:04049400AD010008AE
:100498000040000080000000010000000100000092
:04000005080003DD0F
:00000001FF
